{
  "_format": "hh-sol-artifact-1",
  "contractName": "MultiTokenPaymentChannelFactory",
  "sourceName": "contracts/MultiTokenPaymentChannelFactory.sol",
  "abi": [
    {
      "inputs": [],
      "name": "ChannelAlreadyClosed",
      "type": "error"
    },
    {
      "inputs": [],
      "name": "ChannelExpired",
      "type": "error"
    },
    {
      "inputs": [],
      "name": "ChannelIsAlreadyClosed",
      "type": "error"
    },
    {
      "inputs": [],
      "name": "ChannelNotExpired",
      "type": "error"
    },
    {
      "inputs": [],
      "name": "ECDSAInvalidSignature",
      "type": "error"
    },
    {
      "inputs": [
        {
          "internalType": "uint256",
          "name": "length",
          "type": "uint256"
        }
      ],
      "name": "ECDSAInvalidSignatureLength",
      "type": "error"
    },
    {
      "inputs": [
        {
          "internalType": "bytes32",
          "name": "s",
          "type": "bytes32"
        }
      ],
      "name": "ECDSAInvalidSignatureS",
      "type": "error"
    },
    {
      "inputs": [],
      "name": "InsufficientBalance",
      "type": "error"
    },
    {
      "inputs": [],
      "name": "InvalidRecipient",
      "type": "error"
    },
    {
      "inputs": [],
      "name": "InvalidSignature",
      "type": "error"
    },
    {
      "inputs": [],
      "name": "InvalidTokenAddress",
      "type": "error"
    },
    {
      "inputs": [],
      "name": "NonceNotMonotonic",
      "type": "error"
    },
    {
      "inputs": [],
      "name": "OnlySenderCanTopUp",
      "type": "error"
    },
    {
      "inputs": [],
      "name": "ReentrancyGuardReentrantCall",
      "type": "error"
    },
    {
      "anonymous": false,
      "inputs": [
        {
          "indexed": true,
          "internalType": "bytes32",
          "name": "channelId",
          "type": "bytes32"
        },
        {
          "indexed": false,
          "internalType": "uint256",
          "name": "claimAmount",
          "type": "uint256"
        },
        {
          "indexed": false,
          "internalType": "uint256",
          "name": "nonce",
          "type": "uint256"
        }
      ],
      "name": "ChannelClosed",
      "type": "event"
    },
    {
      "anonymous": false,
      "inputs": [
        {
          "indexed": true,
          "internalType": "bytes32",
          "name": "channelId",
          "type": "bytes32"
        },
        {
          "indexed": true,
          "internalType": "address",
          "name": "sender",
          "type": "address"
        },
        {
          "indexed": true,
          "internalType": "address",
          "name": "recipient",
          "type": "address"
        },
        {
          "indexed": false,
          "internalType": "address",
          "name": "token",
          "type": "address"
        },
        {
          "indexed": false,
          "internalType": "uint256",
          "name": "balance",
          "type": "uint256"
        },
        {
          "indexed": false,
          "internalType": "uint256",
          "name": "expiration",
          "type": "uint256"
        }
      ],
      "name": "ChannelOpened",
      "type": "event"
    },
    {
      "anonymous": false,
      "inputs": [
        {
          "indexed": true,
          "internalType": "bytes32",
          "name": "channelId",
          "type": "bytes32"
        },
        {
          "indexed": true,
          "internalType": "address",
          "name": "sender",
          "type": "address"
        },
        {
          "indexed": false,
          "internalType": "uint256",
          "name": "amount",
          "type": "uint256"
        },
        {
          "indexed": false,
          "internalType": "uint256",
          "name": "newBalance",
          "type": "uint256"
        },
        {
          "indexed": false,
          "internalType": "uint256",
          "name": "timestamp",
          "type": "uint256"
        }
      ],
      "name": "ChannelToppedUp",
      "type": "event"
    },
    {
      "inputs": [
        {
          "internalType": "bytes32",
          "name": "",
          "type": "bytes32"
        }
      ],
      "name": "channels",
      "outputs": [
        {
          "internalType": "address",
          "name": "sender",
          "type": "address"
        },
        {
          "internalType": "address",
          "name": "recipient",
          "type": "address"
        },
        {
          "internalType": "address",
          "name": "token",
          "type": "address"
        },
        {
          "internalType": "uint256",
          "name": "balance",
          "type": "uint256"
        },
        {
          "internalType": "uint256",
          "name": "highestNonce",
          "type": "uint256"
        },
        {
          "internalType": "uint256",
          "name": "expiration",
          "type": "uint256"
        },
        {
          "internalType": "bool",
          "name": "isClosed",
          "type": "bool"
        }
      ],
      "stateMutability": "view",
      "type": "function"
    },
    {
      "inputs": [
        {
          "internalType": "bytes32",
          "name": "channelId",
          "type": "bytes32"
        },
        {
          "internalType": "uint256",
          "name": "claimAmount",
          "type": "uint256"
        },
        {
          "internalType": "uint256",
          "name": "nonce",
          "type": "uint256"
        },
        {
          "internalType": "bytes",
          "name": "signature",
          "type": "bytes"
        }
      ],
      "name": "closeChannel",
      "outputs": [],
      "stateMutability": "nonpayable",
      "type": "function"
    },
    {
      "inputs": [
        {
          "internalType": "bytes32",
          "name": "channelId",
          "type": "bytes32"
        }
      ],
      "name": "expireChannel",
      "outputs": [],
      "stateMutability": "nonpayable",
      "type": "function"
    },
    {
      "inputs": [
        {
          "internalType": "address",
          "name": "sender",
          "type": "address"
        },
        {
          "internalType": "address",
          "name": "recipient",
          "type": "address"
        },
        {
          "internalType": "uint256",
          "name": "timestamp",
          "type": "uint256"
        }
      ],
      "name": "generateChannelId",
      "outputs": [
        {
          "internalType": "bytes32",
          "name": "",
          "type": "bytes32"
        }
      ],
      "stateMutability": "pure",
      "type": "function"
    },
    {
      "inputs": [
        {
          "internalType": "bytes32",
          "name": "channelId",
          "type": "bytes32"
        }
      ],
      "name": "getChannel",
      "outputs": [
        {
          "components": [
            {
              "internalType": "address",
              "name": "sender",
              "type": "address"
            },
            {
              "internalType": "address",
              "name": "recipient",
              "type": "address"
            },
            {
              "internalType": "address",
              "name": "token",
              "type": "address"
            },
            {
              "internalType": "uint256",
              "name": "balance",
              "type": "uint256"
            },
            {
              "internalType": "uint256",
              "name": "highestNonce",
              "type": "uint256"
            },
            {
              "internalType": "uint256",
              "name": "expiration",
              "type": "uint256"
            },
            {
              "internalType": "bool",
              "name": "isClosed",
              "type": "bool"
            }
          ],
          "internalType": "struct MultiTokenPaymentChannelFactory.Channel",
          "name": "",
          "type": "tuple"
        }
      ],
      "stateMutability": "view",
      "type": "function"
    },
    {
      "inputs": [
        {
          "internalType": "bytes32",
          "name": "channelId",
          "type": "bytes32"
        }
      ],
      "name": "getChannelBalance",
      "outputs": [
        {
          "internalType": "uint256",
          "name": "",
          "type": "uint256"
        }
      ],
      "stateMutability": "view",
      "type": "function"
    },
    {
      "inputs": [
        {
          "internalType": "bytes32",
          "name": "channelId",
          "type": "bytes32"
        }
      ],
      "name": "isChannelOpen",
      "outputs": [
        {
          "internalType": "bool",
          "name": "",
          "type": "bool"
        }
      ],
      "stateMutability": "view",
      "type": "function"
    },
    {
      "inputs": [
        {
          "internalType": "address",
          "name": "tokenAddress",
          "type": "address"
        },
        {
          "internalType": "address",
          "name": "recipient",
          "type": "address"
        },
        {
          "internalType": "uint256",
          "name": "amount",
          "type": "uint256"
        },
        {
          "internalType": "uint256",
          "name": "expiration",
          "type": "uint256"
        }
      ],
      "name": "openChannel",
      "outputs": [
        {
          "internalType": "bytes32",
          "name": "channelId",
          "type": "bytes32"
        }
      ],
      "stateMutability": "payable",
      "type": "function"
    },
    {
      "inputs": [
        {
          "internalType": "bytes32",
          "name": "channelId",
          "type": "bytes32"
        },
        {
          "internalType": "uint256",
          "name": "amount",
          "type": "uint256"
        }
      ],
      "name": "topUpChannel",
      "outputs": [],
      "stateMutability": "payable",
      "type": "function"
    }
  ],
  "bytecode": "0x608060405234801561001057600080fd5b5060016000556113dc806100256000396000f3fe6080604052600436106100865760003560e01c8063831c2b8211610059578063831c2b82146101d15780638651db4a146102fa578063a87feab51461031a578063cf0279151461032d578063d8d9965a1461034d57600080fd5b8063093c4ee61461008b57806342161b74146100ce5780635788680f146100f05780637a7ebd7b14610120575b600080fd5b34801561009757600080fd5b506100bb6100a6366004611172565b60009081526001602052604090206003015490565b6040519081526020015b60405180910390f35b3480156100da57600080fd5b506100ee6100e9366004611172565b610360565b005b3480156100fc57600080fd5b5061011061010b366004611172565b610529565b60405190151581526020016100c5565b34801561012c57600080fd5b5061018b61013b366004611172565b600160208190526000918252604090912080549181015460028201546003830154600484015460058501546006909501546001600160a01b03968716969485169593909416939192909160ff1687565b604080516001600160a01b039889168152968816602088015294909616938501939093526060840191909152608083015260a082015290151560c082015260e0016100c5565b3480156101dd57600080fd5b5061029a6101ec366004611172565b6040805160e081018252600080825260208201819052918101829052606081018290526080810182905260a0810182905260c081019190915250600090815260016020818152604092839020835160e08101855281546001600160a01b039081168252938201548416928101929092526002810154909216928101929092526003810154606083015260048101546080830152600581015460a08301526006015460ff16151560c082015290565b6040805182516001600160a01b039081168252602080850151821690830152838301511691810191909152606080830151908201526080808301519082015260a0808301519082015260c09182015115159181019190915260e0016100c5565b34801561030657600080fd5b506100bb6103153660046111a7565b610567565b6100ee6103283660046111e3565b6105b9565b34801561033957600080fd5b506100ee61034836600461121b565b610803565b6100bb61035b3660046112e9565b610b6c565b6000818152600160205260409020600581015442116103925760405163d56b7c9760e01b815260040160405180910390fd5b600681015460ff16156103b8576040516323b87dad60e01b815260040160405180910390fd5b60068101805460ff1916600117905560028101546001600160a01b031661041c57805460038201546040516001600160a01b039092169181156108fc0291906000818181858888f19350505050158015610416573d6000803e3d6000fd5b506104dd565b60028101548154600383015460405163a9059cbb60e01b81526001600160a01b039283166004820152602481019190915291169063a9059cbb906044016020604051808303816000875af1158015610478573d6000803e3d6000fd5b505050506040513d601f19601f8201168201806040525081019061049c919061132b565b6104dd5760405162461bcd60e51b815260206004820152600d60248201526c1499599d5b990819985a5b1959609a1b60448201526064015b60405180910390fd5b817faee37d46ae7638649199a415cd6d49cc67df520cf2c80210daac017e0df3ab986000836004015460405161051d929190918252602082015260400190565b60405180910390a25050565b60008181526001602052604081206006015460ff1615801561056157506000828152600160205260409020546001600160a01b031615155b92915050565b6040516bffffffffffffffffffffffff19606085811b8216602084015284901b166034820152604881018290526000906068016040516020818303038152906040528051906020012090509392505050565b6000828152600160205260409020600681015460ff16156105ed57604051631fa3052b60e01b815260040160405180910390fd5b80546001600160a01b031633146106175760405163318c86c160e01b815260040160405180910390fd5b8160000361063857604051631e9acf1760e31b815260040160405180910390fd5b60028101546001600160a01b03166106945781341461068f5760405162461bcd60e51b815260206004820152601360248201527208aa89040c2dadeeadce840dad2e6dac2e8c6d606b1b60448201526064016104d4565b61079d565b34156106e25760405162461bcd60e51b815260206004820152601b60248201527f455448206e6f7420657870656374656420666f72204552432d3230000000000060448201526064016104d4565b60028101546040516323b872dd60e01b8152336004820152306024820152604481018490526001600160a01b03909116906323b872dd906064016020604051808303816000875af115801561073b573d6000803e3d6000fd5b505050506040513d601f19601f8201168201806040525081019061075f919061132b565b61079d5760405162461bcd60e51b815260206004820152600f60248201526e151c985b9cd9995c8819985a5b1959608a1b60448201526064016104d4565b818160030160008282546107b1919061136a565b90915550506003810154604080518481526020810192909252428282015251339185917f0e1613a9e920535557164a1d2fa842a30e63571237f3db5d4b2f82a5dba074fb9181900360600190a3505050565b61080b610e9c565b6000848152600160205260409020600681015460ff161561083f576040516323b87dad60e01b815260040160405180910390fd5b806005015442111561086457604051635faa867760e11b815260040160405180910390fd5b80546108809086908690869086906001600160a01b0316610ec6565b806004015483116108a457604051630b35d9d960e11b815260040160405180910390fd5b80600301548411156108c957604051631e9acf1760e31b815260040160405180910390fd5b60068101805460ff191660011790556004810183905560038101546000906108f290869061137d565b60028301549091506001600160a01b031661098a5760018201546040516001600160a01b039091169086156108fc029087906000818181858888f19350505050158015610943573d6000803e3d6000fd5b5080156109855781546040516001600160a01b039091169082156108fc029083906000818181858888f19350505050158015610983573d6000803e3d6000fd5b505b610b1f565b6002820154600183015460405163a9059cbb60e01b81526001600160a01b0391821660048201526024810188905291169063a9059cbb906044016020604051808303816000875af11580156109e3573d6000803e3d6000fd5b505050506040513d601f19601f82011682018060405250810190610a07919061132b565b610a535760405162461bcd60e51b815260206004820152601c60248201527f5472616e7366657220746f20726563697069656e74206661696c65640000000060448201526064016104d4565b8015610b1f576002820154825460405163a9059cbb60e01b81526001600160a01b0391821660048201526024810184905291169063a9059cbb906044016020604051808303816000875af1158015610aaf573d6000803e3d6000fd5b505050506040513d601f19601f82011682018060405250810190610ad3919061132b565b610b1f5760405162461bcd60e51b815260206004820152601760248201527f526566756e6420746f2073656e646572206661696c656400000000000000000060448201526064016104d4565b604080518681526020810186905287917faee37d46ae7638649199a415cd6d49cc67df520cf2c80210daac017e0df3ab98910160405180910390a25050610b666001600055565b50505050565b60006001600160a01b038416610b9557604051634e46966960e11b815260040160405180910390fd5b428211610bb557604051635faa867760e11b815260040160405180910390fd5b82600003610bd657604051631e9acf1760e31b815260040160405180910390fd5b6001600160a01b03851615610c1057846001600160a01b03163b600003610c1057604051630f58058360e11b815260040160405180910390fd5b6001600160a01b038516610c6857823414610c635760405162461bcd60e51b815260206004820152601360248201527208aa89040c2dadeeadce840dad2e6dac2e8c6d606b1b60448201526064016104d4565b610d6b565b3415610cb65760405162461bcd60e51b815260206004820152601b60248201527f455448206e6f7420657870656374656420666f72204552432d3230000000000060448201526064016104d4565b6040516323b872dd60e01b8152336004820152306024820152604481018490526001600160a01b038616906323b872dd906064016020604051808303816000875af1158015610d09573d6000803e3d6000fd5b505050506040513d601f19601f82011682018060405250810190610d2d919061132b565b610d6b5760405162461bcd60e51b815260206004820152600f60248201526e151c985b9cd9995c8819985a5b1959608a1b60448201526064016104d4565b610d76338542610567565b6040805160e081018252338082526001600160a01b0388811660208085018281528c8416868801908152606087018c815260006080890181815260a08a018e815260c08b018381528d8452600197889052928c90209a518b54908a166001600160a01b0319918216178c559551968b018054978a1697871697909717909655925160028a01805491909816941693909317909555935160038701559251600486015551600585015590516006909301805493151560ff199094169390931790925591519293509183907f8362dd0b67634a4019c49c8d06deaef6211ec448c4c53023a73774db1fcdafa790610e8c908a90899089906001600160a01b039390931683526020830191909152604082015260600190565b60405180910390a4949350505050565b600260005403610ebf57604051633ee5aeb560e01b815260040160405180910390fd5b6002600055565b604080516020808201889052818301879052606080830187905283518084039091018152608090920190925280519101207f19457468657265756d205369676e6564204d6573736167653a0a3332000000006000908152601c829052603c812090610f318286610f6f565b9050836001600160a01b0316816001600160a01b031614610f6557604051638baa579f60e01b815260040160405180910390fd5b5050505050505050565b600080600080610f7f8686610f99565b925092509250610f8f8282610fe6565b5090949350505050565b60008060008351604103610fd35760208401516040850151606086015160001a610fc5888285856110a3565b955095509550505050610fdf565b50508151600091506002905b9250925092565b6000826003811115610ffa57610ffa611390565b03611003575050565b600182600381111561101757611017611390565b036110355760405163f645eedf60e01b815260040160405180910390fd5b600282600381111561104957611049611390565b0361106a5760405163fce698f760e01b8152600481018290526024016104d4565b600382600381111561107e5761107e611390565b0361109f576040516335e2f38360e21b8152600481018290526024016104d4565b5050565b600080807f7fffffffffffffffffffffffffffffff5d576e7357a4501ddfe92f46681b20a08411156110de5750600091506003905082611168565b604080516000808252602082018084528a905260ff891692820192909252606081018790526080810186905260019060a0016020604051602081039080840390855afa158015611132573d6000803e3d6000fd5b5050604051601f1901519150506001600160a01b03811661115e57506000925060019150829050611168565b9250600091508190505b9450945094915050565b60006020828403121561118457600080fd5b5035919050565b80356001600160a01b03811681146111a257600080fd5b919050565b6000806000606084860312156111bc57600080fd5b6111c58461118b565b92506111d36020850161118b565b9150604084013590509250925092565b600080604083850312156111f657600080fd5b50508035926020909101359150565b634e487b7160e01b600052604160045260246000fd5b6000806000806080858703121561123157600080fd5b843593506020850135925060408501359150606085013567ffffffffffffffff8082111561125e57600080fd5b818701915087601f83011261127257600080fd5b81358181111561128457611284611205565b604051601f8201601f19908116603f011681019083821181831017156112ac576112ac611205565b816040528281528a60208487010111156112c557600080fd5b82602086016020830137600060208483010152809550505050505092959194509250565b600080600080608085870312156112ff57600080fd5b6113088561118b565b93506113166020860161118b565b93969395505050506040820135916060013590565b60006020828403121561133d57600080fd5b8151801515811461134d57600080fd5b9392505050565b634e487b7160e01b600052601160045260246000fd5b8082018082111561056157610561611354565b8181038181111561056157610561611354565b634e487b7160e01b600052602160045260246000fdfea2646970667358221220122476f7236c5cd7a2cce0d5fb481fc4eef03a4686c81a96c5699f43bcb98edd64736f6c63430008140033",
  "linkReferences": {},
  "deployedLinkReferences": {}
}